:1000000000800020BD010000FD130000C9130000A6
:10001000C9130000C9130000C9130000C913000070
:10002000C9130000C9130000C9130000FD1300002C
:10003000FD130000C913000035120000F912000082
:10004000FD130000FD130000FD130000FD13000070
:10005000FD130000FD130000FD130000FD13000060
:10006000FD130000FD130000FD130000FD13000050
:10007000FD130000FD130000FD130000FD13000040
:10008000FD130000FD130000FD130000FD13000030
:10009000FD130000FD130000FD130000FD13000020
:1000A000FD130000FD130000FD130000FD13000010
:1000B000FD130000FD130000FD130000FD13000000
:1000C000FD130000FD130000FD130000FD130000F0
:1000D000FD130000FD130000FD130000FD130000E0
:1000E000FD130000FD130000FD130000FD130000D0
:1000F000FD13000035140000FD1300005115000031
:10010000FD1300006D160000FD130000FD1300003C
:10011000FD130000FD130000FD130000FD1300009F
:10012000FD130000FD130000FD130000FD1300008F
:10013000FD130000FD130000FD130000FD1300007F
:10014000FD130000FD130000FD130000FD1300006F
:10015000FD130000FD130000FD130000FD1300005F
:10016000FD130000D9090000FD130000FD1300007D
:10017000FD130000FD130000FD130000FD1300003F
:10018000FD130000FD130000FD130000FD1300002F
:10019000FD130000FD130000FD130000FD1300001F
:1001A000FD130000FD130000FD130000FD1300000F
:1001B000FD130000FD130000FD130000564B4CF230
:1001C000205210B51A804DF628121A8000BF00BFC9
:1001D00001F018F9514B4FF010621A60504A9A60C2
:1001E000504ADA60504A136813F4807301BF4F49D4
:1001F0000B604FF4A85313604D4B4E491A7810070B
:1002000042BF1A7842F008021A704B4B2A221A7029
:100210004A4A4B4B8B4204D252F8040F43F8040B6A
:10022000F8E7484B484A0021934202D243F8041BA6
:10023000FAE7464A4648002350F8231042F82310B4
:1002400001336F2BF8D1434B434A802103F8011B44
:100250009342FBD1414B3D4A1A60414B8A221A70AE
:10026000A3F5805324225A70A0221A709A7991071C
:10027000FCD59A79D206FCD43A4A937903F00C0360
:10028000082B384BF9D105221A7143225A719A79F9
:100290009406FCD533498A79324B5006FBD5324A55
:1002A0004FF0817111600521516020221A709A79F6
:1002B00002F00C020C2AFAD12C4B2D4A1A602D4B5D
:1002C0002D4A1A6000225A60072243F8042C2B4A58
:1002D000C3F80C2D62B600F091FA144B1B68DA07D4
:1002E00005D5274800F0F2F9264B274A1A60274B1C
:1002F0001B785B0609D5234C234B22689A4204D114
:100300001F4800F0E3F90023236001F071FA01F0C7
:100310007FF800F039F9FEE70E20054030800440F8
:10032000823F04000100002B10D0034014D0034092
:1003300002D00740F08BFF1F00E00740401C000088
:100340002087FF1FF08BFF1F6C90FF1F0082FF1F95
:100350000000000000E400E05FE400E008ED00E0E1
:1003600000500640004006404480044004800440A1
:10037000C010050014E000E03F190100000020203B
:10038000897A885B1CE00340A5C3945A00F00740BB
:10039000FFFFFFFFFFFFFFFFFFFFFFFFFFFFFFFF6D
:1003A000FFFFFFFFFFFFFFFFFFFFFFFFFFFFFFFF5D
:1003B000FFFFFFFFFFFFFFFFFFFFFFFFFFFFFFFF4D
:1003C000FFFFFFFFFFFFFFFFFFFFFFFFFFFFFFFF3D
:1003D000FFFFFFFFFFFFFFFFFFFFFFFFFFFFFFFF2D
:1003E000FFFFFFFFFFFFFFFFFFFFFFFFFFFFFFFF1D
:1003F000FFFFFFFFFFFFFFFFFFFFFFFFFFFFFFFF0D
:10040000FFFFFFFFFFFFFFFFFFFFFFFFDEF9FFFF23
:1004100010B5054C237833B9044B13B10448AFF33E
:1004200000800123237010BDF08BFF1F000000002F
:10043000441C0000084B10B51BB108490848AFF335
:1004400000800848036803B910BD074B002BFBD0A0
:10045000BDE81040184700BF00000000F48BFF1FEC
:10046000441C0000F08BFF1F0000000038B5002383
:10047000037043604FF4FA6304460D4683604FF403
:10048000C8720649243000F087F8E8B2012100F074
:100490004DF9C4F8B451204638BD00BF2C190000F6
:1004A000002190F8B40100F021B9012190F8B401C5
:1004B00000F01CB9836870B553431546FF22B3FBA7
:1004C000F2F3436104460E4600F062F9E0603DB18C
:1004D00061686369411A99422CBF0021012100E043
:1004E00029462176F0B200F001F96268E368A1685C
:1004F000981A884298BF1346636070BDC269036A48
:10050000B2F57A7FB4BF01320022C26102B9013371
:10051000642BA8BF0023036200EB8303D0F8B4115F
:100520005A6AFFF7C7BF026AD0F8B41100EB820223
:10053000526AFFF7BFBF01210D2000F0F7B8FFFF9F
:1005400010B50C4C0C48FFF7D9FF013CFAD1094C0F
:100550000948FFF7E8FF013CFAD1064C0648FFF7CF
:100560009FFF013CFAD1034C0348FFF79EFF013C7B
:10057000FAD110BD40420F000C8CFF1F0D21014825
:10058000FFF774BF0C8CFF1F08B5FFF7D4FFFFF710
:10059000D7FF00F0E1FDFAE7844641EA000313F0DB
:1005A00003036DD1403A41D351F8043B40F8043B7A
:1005B00051F8043B40F8043B51F8043B40F8043B3D
:1005C00051F8043B40F8043B51F8043B40F8043B2D
:1005D00051F8043B40F8043B51F8043B40F8043B1D
:1005E00051F8043B40F8043B51F8043B40F8043B0D
:1005F00051F8043B40F8043B51F8043B40F8043BFD
:1006000051F8043B40F8043B51F8043B40F8043BEC
:1006100051F8043B40F8043B51F8043B40F8043BDC
:1006200051F8043B40F8043B403ABDD2303211D37C
:1006300051F8043B40F8043B51F8043B40F8043BBC
:1006400051F8043B40F8043B51F8043B40F8043BAC
:10065000103AEDD20C3205D351F8043B40F8043B7C
:10066000043AF9D2043208D0D2071CBF11F8013B7A
:1006700000F8013B01D30B8803806046704700BF40
:10068000082A13D38B078DD010F003038AD0C3F14F
:100690000403D21ADB071CBF11F8013B00F8013B31
:1006A00080D331F8023B20F8023B7BE7043AD9D3F0
:1006B000013A11F8013B00F8013BF9D20B780370C5
:1006C0004B7843708B78837060467047044B0549C4
:1006D00000221A600A60044A106010221A607047F3
:1006E00014D0034004D0034000D00340212810B5AB
:1006F00018D80D4B53F8302092F880423CB10123BA
:1007000011B182F8803010BD82F8003110BD03EBCA
:10071000C0035B681A6811B142F0030201E022F0E5
:1007200002021A6010BD00BFBC1A0000212810B5DB
:100730002BD8164A02EBC00301295B68144601D08E
:1007400004290FD154F83020012082F880024FF4A0
:10075000A2721A601A6804290CBF42F0200222F02B
:10076000200211E052F83000002280F8802211B9F6
:100770004FF4807208E0022902D140F2031203E034
:10078000032908BF4FF481721A6010BDBC1A000023
:1007900072B60C4B0C4A0D491B681268096862B6A8
:1007A000490102D5322B88BF0132C3F58C33482072
:1007B00003F23F13B3FBF0F34FF47A7000FB023007
:1007C000704700BF18E000E0C48DFF1F04ED00E09B
:1007D00038B50446FFF7DCFF054624B938BD013CB7
:1007E0000AD005F57A75FFF7D3FF401BB0F57A7F85
:1007F000F5D200F0B1FCF6E738BDFFFF214B4FF416
:10080000000210B51A604FF080721A604FF000724B
:100810001A604FF080621A604FF000621A601A4B43
:100820001A4A1B4C002048F6FF71186059602823B3
:100830001360936013619361136293621363936314
:100840000922226004F58054043420606160A360B2
:10085000236144F8042C04F5FE2420600D48016057
:100860000D490B608B600D4B1A6000F051FD32207A
:10087000FFF7AEFF00F0BCFB4FF4AF70BDE81040D7
:10088000FFF7A6BF08E100E0048003400C800340AE
:100890000080034008800B400C800B4000800B4020
:1008A000F0B50C4C0C4E23780C4D43F0020706EBD0
:1008B000C70283F0010350602A782370002A14BF16
:1008C000C820882082F0010240EA01412A7046F8DF
:1008D0003710F0BD308EFF1F0080FF1FA88EFF1F56
:1008E00070B472B6174C184901231A1912F8012C6A
:1008F00012071DD59A00144E51F832502DB906EB4F
:10090000431308305860114B09E042F0010251F8DE
:1009100032506DB906EBC203083058600C4B46F8F4
:1009200032300C4A1378013B137062B670BC7047CA
:100930000133052BD9D162B6064B00221A7070BC68
:1009400000F0B6BBCC1B00000080FF1F88004000F9
:10095000C80040009E8EFF1F431E032B10B532D8E7
:10096000194A400140F01000104472B6174AD45C96
:10097000032C0BD8DFE804F018040207052414E068
:100980000830022411E0083004240EE01048114A17
:1009900050F8234014B940F8231002E052F8230025
:1009A000416042F823100DE00324D45410F0080FE6
:1009B00001F108030A88436014BFC823882343EA6F
:1009C0000243036062B610BD0080FF1FDC8DFF1F75
:1009D000748EFF1F848EFF1F2DE9F74FA94B1C78E3
:1009E000E4B214F0040F1D461AD0A74B1B78A3B134
:1009F000A64A117801F0FF0321B1013BDBB213706D
:100A000003B900BEA24A117801F0FF0329B1013BEE
:100A1000DBB213700BB900F07BFB9A4A042313700E
:100A200004F0080303F0FF02002B00F07182994BE1
:100A3000994C1B78DBB21F094FEA930640F0EC811A
:100A400004EBC603596854F83630C3F38303013B03
:100A50000C2B00F2DD81DFE813F09A019A01DB0133
:100A6000DB01DB01DB01DB01DB01B901DB01DB01C8
:100A7000DB010D000A68894D89484B682A60012115
:100A80006B60DFF85082874B017092B240F2816058
:100A900044F8363082424FF00003C8F8003023613A
:100AA000A36117D8B2F5D06F80F02781B2F5817FAE
:100AB00000F0D88006D8802A00F0C180822A00F099
:100AC000C28035E140F202339A4200F00781B2F56C
:100AD000A06F1AE042F22100824200F055810CD84A
:100AE000B2F5086F00F0A580B2F5106F40F02081DC
:100AF000654AA97811701E460AE042F221218A4215
:100B000000F00E8142F221339A4200F015810FE18C
:100B1000A219136A1F0603D5506A083800F0C8FAF4
:100B20000836802EF4D1DFF8B0915F4F0026CA4618
:100B300059F826004FEA860B30B14268009200F067
:100B4000B7FA009A1046F7E7584B594A4AF80B0093
:100B50004BF803005BF8020040B14168019200913C
:100B600000F0A6FA0099019A0846F5E7514B42F8C1
:100B70000B0023F816003B784F4A023B4BF802006B
:100B8000032B07D8DFE803F002040204002300E08F
:100B900001233B700136042E07F10107C8D1474BF2
:100BA000474E404F00221A704FF0010B9946454ABC
:100BB0000BEB06015A4411F8011C920011F0080FCA
:100BC00011704FEA8B0A24D000F054FA38B104EBCC
:100BD0004B1208303C4B506044F83A3006E099F82C
:100BE000002044F83A00013289F8002000F042FA6F
:100BF0004AF0010230B104EBC2010830486044F809
:100C0000327006E044F8320099F80020013289F889
:100C100000204AF002010BF1010B4AF0030A002206
:100C2000BBF1050F44F8312044F83A20BFD11346F8
:100C300083E0154B254E1B7833700B4680E0234E26
:100C4000337073707BE0AA8802F07F02042A6FD8A9
:100C50001E4E9200337073701D4B9B5C9C076ED5CB
:100C600031706CE0AA8802F07F02042A60D86B8899
:100C7000002B5DD11649920011440A7822F002023D
:100C800039E000BF80200740A78EFF1F318EFF1F75
:100C9000A98EFF1F902007400080FF1F948EFF1F2A
:100CA000A88EFF1FC8004000DC8DFF1FCC8DFF1FEA
:100CB000748EFF1F5690FF1F848EFF1F9E8EFF1F96
:100CC000CC1B000030C80110880040009F8EFF1F21
:100CD000C0200740C88DFF1F208EFF1FAA8802F08A
:100CE0007F02042A24D86B8813BBA54992001144C3
:100CF0000A7842F002020A701FE06A88A988A14BB4
:100D00005E68AEB11888904208D15888884205D1F3
:100D1000120A032A0CBF33781B8911E00C33EFE76A
:100D2000994A1168994A1160994AA978117004E0AA
:100D3000934B0F221A7027E000231E4600E0022387
:100D4000EC889C4228BF1C46402C254628BF4025E5
:100D500030462946FFF7A4FD641B2E4403D1402DE5
:100D600012D1254603E0402C254628BF40253046B9
:100D70002946FFF795FD641B2E4401D1402D03D178
:100D8000844BC8F800601C800122834B3FE0834BFA
:100D90001A8842F221039A4214D1814A0023C85C86
:100DA00098540133072BFAD17D4B1B68862B08BF63
:100DB0007C4B4FF0000108BF0F22084608BF1A7095
:100DC000FFF76EFD784B44F8363021E0774F3E68F0
:100DD000A6B1DFF8C081B8F80040402C254628BFF6
:100DE000402530462946FFF75BFD601B80B2A8F81E
:100DF000000008B9402D00D170193860674B1A887F
:100E0000B2F5A06F04D100225A709A78684B1A701C
:100E1000614B01221A7077E004EBC605013F6A6856
:100E200003F00803A2F10800FFB203F0FF0E002B4D
:100E300036D000F03DF95F485F4A50F82710E9B11D
:100E40004B6840F8273001F108036B60D35D032B3A
:100E50000BD8DFE803F002040608032304E00223B2
:100E600002E0052300E00423D35515F0080F0A889B
:100E700014BFC823882343EA024343E0D35D032B16
:100E800007D8DFE803F041410204002306E0012314
:100E900004E015F0080F14BF03230223D35533E0F9
:100EA00054F836301B0C99B222F8081C23B3434B7C
:100EB00022F806EC42F804EC53F82720DFF82CE186
:100EC00012B943F8270002E05EF8273058603C4A28
:100ED0004EF8270032F817300B4422F8173000F094
:100EE000C9F810B10830686006E0364A44F83600A8
:100EF00013780133137007E0334A2B4B15F0080FBA
:100F000008BF134644F83630304A0823137065E5AD
:100F1000E0071ED520492C482D4C02230B702D4B89
:100F20001A702D4B186098602C48D8601A619A612D
:100F30005C60134B0D2018702948FF2303702B7041
:100F40000274284A1370284B9F221A7001230B70D9
:100F500012E0210604D50A4B0D221A7080232B7053
:100F6000A20705D51E4A1378DBB2137002232B703B
:100F7000E30644BF10232B7003B0BDE8F08F00BF21
:100F8000C0200740D01B0000C48DFF1F6890FF1FCA
:100F9000B48EFF1F9C8EFF1F94200740948EFF1F6E
:100FA0006090FF1F318EFF1FC8004000C88DFF1FDB
:100FB00098200740748EFF1FDC8DFF1F208EFF1FBF
:100FC0005690FF1F9E8EFF1F880040008020074024
:100FD000E08DFF1F308EFF1F0080FF1F348EFF1F2C
:100FE000882007408C20074084200740CC8DFF1FBD
:100FF00010B500F0A1FB0023194819461950C41878
:101000000833882B164A6160F8D116490B6843F4FF
:1010100080230B60144BC2F307211970C2F3074100
:10102000120E19751A76114AFF23137000211372DC
:1010300002F8703C0123137582F8801013710C4B79
:1010400070226FF450711A700B444FF400721A60E2
:1010500003F1C04303F5C82310221A7010BD00BF6E
:101060000080FF1F348004409C2007408020074000
:1010700049E400E010B572B60B480268B2FA82F19A
:101080000B2902DD62B6002010BD4FF00043CB40BB
:1010900022EA0302026062B6044C48234B43E01884
:1010A0000022E250426010BD2087FF1FBC83FF1F5B
:1010B0000C4B4822C31AB3FBF2F30B2B11D80A4A8C
:1010C000127822B1094A12780AB1FFF709BC72B648
:1010D00007494FF0004222FA03F30A681A430A60F4
:1010E00062B67047BC83FF1F9E8EFF1FA78EFF1F37
:1010F0002087FF1F044B9888044B1A681AB1138885
:1011000052889B1A184470475690FF1FB08EFF1FDD
:1011100038B50E4B1B7803F0FF05ABB90C4C2168BA
:1011200031B14B880B800420FFF716FC256038BDD9
:10113000FFF7A0FF014620B10420BDE83840FFF7CB
:101140000BBC044B01221A7038BD00BFAA8EFF1FD2
:10115000AC8EFF1FA98EFF1F38B51E4C2378002BC5
:1011600036D101232370FFF7C5FF08B100F01EFB45
:1011700000F050F908B100F0C7F800F0D9F908B153
:1011800000F0C3F800F062FA08B100F0BFF80023E5
:101190002370EFF30583DBB9EFF3108272B60E4DC7
:1011A000286810B10D4C217811B18AB962B638BDEA
:1011B0000123237043692B600BB1996101E0084959
:1011C0000B6002B962B600254577836898472570A1
:1011D00038BD00BFB58EFF1FC88EFF1FCC8EFF1F0E
:1011E000C48EFF1FEFF3108072B6B0FA80F0400992
:1011F000704700B162B67047F8B50C4E0C4F002531
:10120000FFF7F0FF346802466CB1636933600BB1DD
:101210009D6100E03B601046FFF7EBFF6577A36838
:1012200020469847ECE7FFF7E4FFF8BDB88EFF1FB4
:10123000BC8EFF1FFFF7E0BF15490B6830B513B92F
:101240008360C36009E004681A68944207D20025ED
:10125000121B8360C560D8601A60086015E00268E0
:101260001C689968121B026061B10C68A2420B46AF
:10127000F5D28160C968C160D860C168A21A88606F
:101280001A6002E08160C36098600223037530BD7C
:10129000C08EFF1F70B5164D2C680026BCB12368A8
:1012A00013B1013B236012E0A26802B1D360206950
:1012B0002A60036826751B682246002198476368E8
:1012C0001BB123602046FFF7B7FF2C68E6E7FFF766
:1012D00089FF084B00221C681A60FFF78AFF2CB1B7
:1012E000A5682046FFF7A8FF2C46F8E770BD00BFB1
:1012F000C08EFF1FD08EFF1F024A13680133136098
:10130000FFF7C8BFC48DFF1F704770477047FFFFCE
:1013100010B5204B2048214960221A70E1225A70F2
:101320001F4B204A1C78204B082C01D1012402E0DD
:101330000A2C03D119240460132005E00C2C0CBFE7
:1013400015243D2404601220086014601860174BB7
:1013500017491B78174A03B101230B601360164B22
:10136000164A1978164B012901D880210BE004296F
:1013700001D8842107E0082901D8852103E010293C
:1013800094BF86218721116019600E4B01221A70CB
:1013900010BD00BF0040074008B003400CB0034040
:1013A0002487FF1F08B00B400CB00B40D58EFF1FE9
:1013B00020B0034020B00B402587FF1F24B003401E
:1013C00024B00B40D48EFF1F08B50B4D2C462B6864
:1013D000580301D5FFF700FB2368590501D500F03C
:1013E00029F823681A0501D500F0B2F82368DB0458
:1013F000EDD500F03BF9EAE73480044008B5FFF78B
:10140000E3FFFFFF014B10221A80704700200540C8
:101410007047FFFF054B1878054B1A78C0B2D3B25E
:10142000984238BF4030C01A704700BF5E8FFF1F20
:10143000DD8EFF1FF0B534490B7913F0300F2FD03C
:1014400072B68B7D03F0FF0423B9CB7940234B7434
:1014500062B625E062B62D482D4A037812782D4FEA
:10146000DBB2D2B20546581C4028CE7928BF0020F6
:101470009042F6B21CBF3E540346601E10F0FF04BB
:10148000F1D1D9B229702449096849B1934236BFD4
:10149000C2F140029B1A9B18272BC4BF01230B707B
:1014A000194AD178C9B20D061ED513791C061BD571
:1014B0001A4B1B481D7803781A4EEDB2DBB2AB42D3
:1014C0000AD00133402B28BF00231479F45CE4B226
:1014D000D471147D072CF2D9DBB203700A4B1A7950
:1014E000100644BF7C22DA7049060CD5064B1A79E7
:1014F000520608D50C4A002111700C4A126802B13C
:1015000011703C22DA70F0BD00A006405E8FFF1F14
:10151000DD8EFF1F1E8FFF1FD88EFF1F648FFF1FE2
:101520005F8FFF1FDE8EFF1FDC8EFF1F608FFF1F90
:10153000054B1878054B1A78C0B2D3B2984238BF21
:101540004030C01A704700BFD68FFF1F6D8FFF1F3E
:10155000F0B534490B7913F0300F2FD072B68B7D74
:1015600003F0FF0423B9CB7940234B7462B625E026
:1015700062B62D482D4A037812782D4FDBB2D2B2D5
:101580000546581C4028CE7928BF00209042F6B26C
:101590001CBF3E540346601E10F0FF04F1D1D9B2C7
:1015A00029702449096849B1934236BFC2F140020B
:1015B0009B1A9B18272BC4BF01230B70194AD178A3
:1015C000C9B20D061ED513791C061BD51A4B1B4834
:1015D0001D7803781A4EEDB2DBB2AB420AD001336C
:1015E000282B28BF00231479F45CE4B2D471147D55
:1015F000072CF2D9DBB203700A4B1A79100644BFEC
:101600007C22DA7049060CD5064B1A79520608D5A9
:101610000C4A002111700C4A126802B111703C2270
:10162000DA70F0BD00B00640D68FFF1F6D8FFF1F30
:10163000968FFF1F688FFF1FDC8FFF1FD78FFF1F45
:101640006E8FFF1F6C8FFF1FD88FFF1F054B187801
:10165000054B1A78C0B2D3B2984238BF4030C01A96
:10166000704700BF4E90FF1FE58FFF1F10B5284B3E
:101670001A79920620D52749DA790B782648013362
:1016800000783F2BC8BF0023834218BF2348D2B243
:101690001EBFC254DAB20A70214A116861B1214AF0
:1016A0001278D2B2934236BFC2F140029B1A9B1805
:1016B000272BC4BF01230B701549CA78D2B2140678
:1016C00016D50B79180613D5174B164C18782378B6
:1016D000DBB2984202D16C23CB7009E00133282B96
:1016E00028BF00231148C05CDBB2C0B2C8712370B0
:1016F00051060CD5064B1A79520608D50C4A002122
:1017000011700C4A126802B111702C22DA7010BDEF
:1017100000C006404E90FF1FE58FFF1F0E90FF1F79
:10172000E08FFF1F4F90FF1F5490FF1FE68FFF1F9A
:10173000E48FFF1F5090FF1F1FB572B6154B70222C
:101740001A70154A412111700F2102F8011C8022E4
:101750001A701A781206FCD5104B186862B6104B36
:10176000984298BF0A2301AC98BF58430A222146E9
:1017700000F01DF80B4A0023E15C21B101330A2B74
:1017800022F8021BF8D1084A01335B00137004B041
:1017900010BD00BF000002400700024008000240E8
:1017A0007F969800B087FF1FAE87FF1F704730B548
:1017B00003460020B3FBF2F402FB1433092B94BF61
:1017C00030333733DBB20B5423460CB10130F1E731
:1017D0000A1823465470C41AA34206DACC5C157862
:1017E000CD5402F801490133F5E7084630BDFFFF4B
:1017F00070B50F4E0F4D761BB61018BF002405D0E4
:10180000013455F8043B9847A642F9D10A4E0B4DD6
:10181000761B00F009FAB61018BF002406D0013478
:1018200055F8043B9847A642F9D170BD70BD00BF82
:10183000341C0000341C0000401C0000341C00005C
:10184000024B13B1024800F005B8704700000000D9
:1018500061180000002301461A46184600F014B82B
:1018600038B5074D074C2C1BA41005D0013C55F88A
:10187000043D9847002CF9D1BDE8384000F0E0B9AC
:1018800000000000000000002DE9F047254C25680D
:10189000D5F848410646884692469946C4B36068E2
:1018A0001F2817DC431C76B104EB80050122C5F824
:1018B00088A0D4F8881182401143022EC4F8881100
:1018C000C5F808911ED00230636044F820800020E3
:1018D000BDE8F087144B03B34FF4C870AFF300803A
:1018E0000446D0B1D5F84831002780E88800C5F813
:1018F000484138460123C4F88871C4F88C71002E21
:10190000E1D0D1E7D4F88C110A43C4F88C21DAE78E
:1019100005F5A674C5F84841C1E74FF0FF30BDE8B2
:10192000F08700BF241C0000000000000100000040
:101930000200000004000000060000000800000093
:101940000A0000000C0000000E0000001000000063
:101950001200000014000000160000001800000033
:101960001A0000001C0000001E0000002000000003
:1019700022000000240000002600000028000000D3
:101980002A0000002C0000002E00000030000000A3
:101990003200000034000000360000003800000073
:1019A0003A0000003C0000003E0000004000000043
:1019B0004200000044000000460000004800000013
:1019C0004A0000004C0000004E00000050000000E3
:1019D00052000000540000005600000058000000B3
:1019E0005A0000005C0000005E0000006000000083
:1019F0006200000062000000600000005E00000065
:101A00005C0000005A000000580000005600000072
:101A10005400000052000000500000004E00000082
:101A20004C0000004A000000480000004600000092
:101A30004400000042000000400000003E000000A2
:101A40003C0000003A0000003800000036000000B2
:101A50003400000032000000300000002E000000C2
:101A60002C0000002A0000002800000026000000D2
:101A70002400000022000000200000001E000000E2
:101A80001C0000001A0000001800000016000000F2
:101A90001400000012000000100000000E00000002
:101AA0000C0000000A000000080000000600000012
:101AB0000400000002000000000000004008FE4397
:101AC00040A004404408FE4344A004400018FE43E4
:101AD00000C004403000FE43309004403400FE4318
:101AE000349004401C18FE431CC004401018FE43F0
:101AF00010C004400818FE4308C004400C18FE4300
:101B00000CC004400C10FE430CB004401010FE4307
:101B100010B004401810FE4318B004401C10FE43DF
:101B20001CB004401410FE4314B004400418FE43DB
:101B300004C004400010FE4300B004400008FE430F
:101B400000A004400408FE4304A004400C08FE4327
:101B50000CA004400808FE4308A004401418FE43EB
:101B600014C004401818FE4318C004400410FE437B
:101B700004B004400810FE4308B004401400FE43C3
:101B8000149004404C08FE434CA004400420FE4343
:101B900004D004402410FE4324B004402010FE432F
:101BA00020B004402810FE4328B004402C10FE430F
:101BB0002CB004400020FE4300D004404808FE43FF
:101BC00048A004401000FE43109004400015191571
:101BD000000100002687FF1F120000000002000025
:101BE0005087FF1F4300000000030000AA87FF1F6B
:101BF00000000000010309043887FF1F00000000F7
:101C0000020309049487FF1F000000000303090476
:101C1000AE87FF1F00000000000000000000000071
:101C200000000000C887FF1FF8B500BFF8BC08BC63
:101C30009E46704741180000350400007D050000F5
:041C4000F8B500BF34
:101C4400FFFFFFFF0A041201010102000040C01659
:101C540083040002010203011803540065006500B7
:101C64006E00730079006400750069006E006F00F7
:101C740009024300020100C032090400000102020B
:101C840001000524001001052401010104240206B9
:101C94000524060001070582031000400904010021
:101CA400020A000000070503024000000705840241
:101CB400400000001603550053004200200053006A
:101CC40065007200690061006C00040309040C03E0
:101CD4000000000000000000000000000000000000
:101CE400000000000000000000000000B48AFF1F94
:101CF4001C8BFF1F848BFF1F0000000000000000EE
:101D040000000000000000000000000000000000CF
:101D140000000000000000000000000000000000BF
:101D240000000000000000000000000000000000AF
:101D3400000000000000000000000000000000009F
:101D4400000000000000000000000000000000008F
:101D5400000000000000000000000000000000007F
:101D6400000000000000000000000000000000006F
:101D7400000000000000000000000000000000005F
:101D8400000000000000000000000000000000004F
:101D940001000000000000000E33CDAB34126DE6EC
:101DA400ECDE05000B000000000000000000000055
:101DB400000000000000000000000000000000001F
:101DC400000000000000000000000000000000000F
:101DD40000000000000000000000000000000000FF
:101DE40000000000000000000000000000000000EF
:00000001FF
